{
  "_format": "hh-sol-artifact-1",
  "contractName": "TestToken",
  "sourceName": "contracts/ERC20.sol",
  "abi": [
    {
      "inputs": [],
      "stateMutability": "nonpayable",
      "type": "constructor"
    },
    {
      "inputs": [],
      "name": "InvalidShortString",
      "type": "error"
    },
    {
      "inputs": [
        {
          "internalType": "string",
          "name": "str",
          "type": "string"
        }
      ],
      "name": "StringTooLong",
      "type": "error"
    },
    {
      "anonymous": false,
      "inputs": [
        {
          "indexed": true,
          "internalType": "address",
          "name": "owner",
          "type": "address"
        },
        {
          "indexed": true,
          "internalType": "address",
          "name": "spender",
          "type": "address"
        },
        {
          "indexed": false,
          "internalType": "uint256",
          "name": "value",
          "type": "uint256"
        }
      ],
      "name": "Approval",
      "type": "event"
    },
    {
      "anonymous": false,
      "inputs": [
        {
          "indexed": true,
          "internalType": "address",
          "name": "delegator",
          "type": "address"
        },
        {
          "indexed": true,
          "internalType": "address",
          "name": "fromDelegate",
          "type": "address"
        },
        {
          "indexed": true,
          "internalType": "address",
          "name": "toDelegate",
          "type": "address"
        }
      ],
      "name": "DelegateChanged",
      "type": "event"
    },
    {
      "anonymous": false,
      "inputs": [
        {
          "indexed": true,
          "internalType": "address",
          "name": "delegate",
          "type": "address"
        },
        {
          "indexed": false,
          "internalType": "uint256",
          "name": "previousBalance",
          "type": "uint256"
        },
        {
          "indexed": false,
          "internalType": "uint256",
          "name": "newBalance",
          "type": "uint256"
        }
      ],
      "name": "DelegateVotesChanged",
      "type": "event"
    },
    {
      "anonymous": false,
      "inputs": [],
      "name": "EIP712DomainChanged",
      "type": "event"
    },
    {
      "anonymous": false,
      "inputs": [
        {
          "indexed": true,
          "internalType": "address",
          "name": "previousOwner",
          "type": "address"
        },
        {
          "indexed": true,
          "internalType": "address",
          "name": "newOwner",
          "type": "address"
        }
      ],
      "name": "OwnershipTransferred",
      "type": "event"
    },
    {
      "anonymous": false,
      "inputs": [
        {
          "indexed": true,
          "internalType": "address",
          "name": "from",
          "type": "address"
        },
        {
          "indexed": true,
          "internalType": "address",
          "name": "to",
          "type": "address"
        },
        {
          "indexed": false,
          "internalType": "uint256",
          "name": "value",
          "type": "uint256"
        }
      ],
      "name": "Transfer",
      "type": "event"
    },
    {
      "inputs": [],
      "name": "CLOCK_MODE",
      "outputs": [
        {
          "internalType": "string",
          "name": "",
          "type": "string"
        }
      ],
      "stateMutability": "view",
      "type": "function"
    },
    {
      "inputs": [],
      "name": "DOMAIN_SEPARATOR",
      "outputs": [
        {
          "internalType": "bytes32",
          "name": "",
          "type": "bytes32"
        }
      ],
      "stateMutability": "view",
      "type": "function"
    },
    {
      "inputs": [
        {
          "internalType": "address",
          "name": "owner",
          "type": "address"
        },
        {
          "internalType": "address",
          "name": "spender",
          "type": "address"
        }
      ],
      "name": "allowance",
      "outputs": [
        {
          "internalType": "uint256",
          "name": "",
          "type": "uint256"
        }
      ],
      "stateMutability": "view",
      "type": "function"
    },
    {
      "inputs": [
        {
          "internalType": "address",
          "name": "spender",
          "type": "address"
        },
        {
          "internalType": "uint256",
          "name": "amount",
          "type": "uint256"
        }
      ],
      "name": "approve",
      "outputs": [
        {
          "internalType": "bool",
          "name": "",
          "type": "bool"
        }
      ],
      "stateMutability": "nonpayable",
      "type": "function"
    },
    {
      "inputs": [
        {
          "internalType": "address",
          "name": "account",
          "type": "address"
        }
      ],
      "name": "balanceOf",
      "outputs": [
        {
          "internalType": "uint256",
          "name": "",
          "type": "uint256"
        }
      ],
      "stateMutability": "view",
      "type": "function"
    },
    {
      "inputs": [
        {
          "internalType": "uint256",
          "name": "amount",
          "type": "uint256"
        }
      ],
      "name": "burn",
      "outputs": [],
      "stateMutability": "nonpayable",
      "type": "function"
    },
    {
      "inputs": [
        {
          "internalType": "address",
          "name": "account",
          "type": "address"
        },
        {
          "internalType": "uint256",
          "name": "amount",
          "type": "uint256"
        }
      ],
      "name": "burnFrom",
      "outputs": [],
      "stateMutability": "nonpayable",
      "type": "function"
    },
    {
      "inputs": [
        {
          "internalType": "address",
          "name": "account",
          "type": "address"
        },
        {
          "internalType": "uint32",
          "name": "pos",
          "type": "uint32"
        }
      ],
      "name": "checkpoints",
      "outputs": [
        {
          "components": [
            {
              "internalType": "uint32",
              "name": "fromBlock",
              "type": "uint32"
            },
            {
              "internalType": "uint224",
              "name": "votes",
              "type": "uint224"
            }
          ],
          "internalType": "struct ERC20Votes.Checkpoint",
          "name": "",
          "type": "tuple"
        }
      ],
      "stateMutability": "view",
      "type": "function"
    },
    {
      "inputs": [],
      "name": "clock",
      "outputs": [
        {
          "internalType": "uint48",
          "name": "",
          "type": "uint48"
        }
      ],
      "stateMutability": "view",
      "type": "function"
    },
    {
      "inputs": [],
      "name": "decimals",
      "outputs": [
        {
          "internalType": "uint8",
          "name": "",
          "type": "uint8"
        }
      ],
      "stateMutability": "view",
      "type": "function"
    },
    {
      "inputs": [
        {
          "internalType": "address",
          "name": "spender",
          "type": "address"
        },
        {
          "internalType": "uint256",
          "name": "subtractedValue",
          "type": "uint256"
        }
      ],
      "name": "decreaseAllowance",
      "outputs": [
        {
          "internalType": "bool",
          "name": "",
          "type": "bool"
        }
      ],
      "stateMutability": "nonpayable",
      "type": "function"
    },
    {
      "inputs": [
        {
          "internalType": "address",
          "name": "delegatee",
          "type": "address"
        }
      ],
      "name": "delegate",
      "outputs": [],
      "stateMutability": "nonpayable",
      "type": "function"
    },
    {
      "inputs": [
        {
          "internalType": "address",
          "name": "delegatee",
          "type": "address"
        },
        {
          "internalType": "uint256",
          "name": "nonce",
          "type": "uint256"
        },
        {
          "internalType": "uint256",
          "name": "expiry",
          "type": "uint256"
        },
        {
          "internalType": "uint8",
          "name": "v",
          "type": "uint8"
        },
        {
          "internalType": "bytes32",
          "name": "r",
          "type": "bytes32"
        },
        {
          "internalType": "bytes32",
          "name": "s",
          "type": "bytes32"
        }
      ],
      "name": "delegateBySig",
      "outputs": [],
      "stateMutability": "nonpayable",
      "type": "function"
    },
    {
      "inputs": [
        {
          "internalType": "address",
          "name": "account",
          "type": "address"
        }
      ],
      "name": "delegates",
      "outputs": [
        {
          "internalType": "address",
          "name": "",
          "type": "address"
        }
      ],
      "stateMutability": "view",
      "type": "function"
    },
    {
      "inputs": [],
      "name": "eip712Domain",
      "outputs": [
        {
          "internalType": "bytes1",
          "name": "fields",
          "type": "bytes1"
        },
        {
          "internalType": "string",
          "name": "name",
          "type": "string"
        },
        {
          "internalType": "string",
          "name": "version",
          "type": "string"
        },
        {
          "internalType": "uint256",
          "name": "chainId",
          "type": "uint256"
        },
        {
          "internalType": "address",
          "name": "verifyingContract",
          "type": "address"
        },
        {
          "internalType": "bytes32",
          "name": "salt",
          "type": "bytes32"
        },
        {
          "internalType": "uint256[]",
          "name": "extensions",
          "type": "uint256[]"
        }
      ],
      "stateMutability": "view",
      "type": "function"
    },
    {
      "inputs": [
        {
          "internalType": "uint256",
          "name": "timepoint",
          "type": "uint256"
        }
      ],
      "name": "getPastTotalSupply",
      "outputs": [
        {
          "internalType": "uint256",
          "name": "",
          "type": "uint256"
        }
      ],
      "stateMutability": "view",
      "type": "function"
    },
    {
      "inputs": [
        {
          "internalType": "address",
          "name": "account",
          "type": "address"
        },
        {
          "internalType": "uint256",
          "name": "timepoint",
          "type": "uint256"
        }
      ],
      "name": "getPastVotes",
      "outputs": [
        {
          "internalType": "uint256",
          "name": "",
          "type": "uint256"
        }
      ],
      "stateMutability": "view",
      "type": "function"
    },
    {
      "inputs": [
        {
          "internalType": "address",
          "name": "account",
          "type": "address"
        }
      ],
      "name": "getVotes",
      "outputs": [
        {
          "internalType": "uint256",
          "name": "",
          "type": "uint256"
        }
      ],
      "stateMutability": "view",
      "type": "function"
    },
    {
      "inputs": [
        {
          "internalType": "address",
          "name": "spender",
          "type": "address"
        },
        {
          "internalType": "uint256",
          "name": "addedValue",
          "type": "uint256"
        }
      ],
      "name": "increaseAllowance",
      "outputs": [
        {
          "internalType": "bool",
          "name": "",
          "type": "bool"
        }
      ],
      "stateMutability": "nonpayable",
      "type": "function"
    },
    {
      "inputs": [
        {
          "internalType": "address",
          "name": "to",
          "type": "address"
        },
        {
          "internalType": "uint256",
          "name": "amount",
          "type": "uint256"
        }
      ],
      "name": "mint",
      "outputs": [],
      "stateMutability": "nonpayable",
      "type": "function"
    },
    {
      "inputs": [],
      "name": "name",
      "outputs": [
        {
          "internalType": "string",
          "name": "",
          "type": "string"
        }
      ],
      "stateMutability": "view",
      "type": "function"
    },
    {
      "inputs": [
        {
          "internalType": "address",
          "name": "owner",
          "type": "address"
        }
      ],
      "name": "nonces",
      "outputs": [
        {
          "internalType": "uint256",
          "name": "",
          "type": "uint256"
        }
      ],
      "stateMutability": "view",
      "type": "function"
    },
    {
      "inputs": [
        {
          "internalType": "address",
          "name": "account",
          "type": "address"
        }
      ],
      "name": "numCheckpoints",
      "outputs": [
        {
          "internalType": "uint32",
          "name": "",
          "type": "uint32"
        }
      ],
      "stateMutability": "view",
      "type": "function"
    },
    {
      "inputs": [],
      "name": "owner",
      "outputs": [
        {
          "internalType": "address",
          "name": "",
          "type": "address"
        }
      ],
      "stateMutability": "view",
      "type": "function"
    },
    {
      "inputs": [
        {
          "internalType": "address",
          "name": "owner",
          "type": "address"
        },
        {
          "internalType": "address",
          "name": "spender",
          "type": "address"
        },
        {
          "internalType": "uint256",
          "name": "value",
          "type": "uint256"
        },
        {
          "internalType": "uint256",
          "name": "deadline",
          "type": "uint256"
        },
        {
          "internalType": "uint8",
          "name": "v",
          "type": "uint8"
        },
        {
          "internalType": "bytes32",
          "name": "r",
          "type": "bytes32"
        },
        {
          "internalType": "bytes32",
          "name": "s",
          "type": "bytes32"
        }
      ],
      "name": "permit",
      "outputs": [],
      "stateMutability": "nonpayable",
      "type": "function"
    },
    {
      "inputs": [],
      "name": "renounceOwnership",
      "outputs": [],
      "stateMutability": "nonpayable",
      "type": "function"
    },
    {
      "inputs": [],
      "name": "symbol",
      "outputs": [
        {
          "internalType": "string",
          "name": "",
          "type": "string"
        }
      ],
      "stateMutability": "view",
      "type": "function"
    },
    {
      "inputs": [],
      "name": "totalSupply",
      "outputs": [
        {
          "internalType": "uint256",
          "name": "",
          "type": "uint256"
        }
      ],
      "stateMutability": "view",
      "type": "function"
    },
    {
      "inputs": [
        {
          "internalType": "address",
          "name": "to",
          "type": "address"
        },
        {
          "internalType": "uint256",
          "name": "amount",
          "type": "uint256"
        }
      ],
      "name": "transfer",
      "outputs": [
        {
          "internalType": "bool",
          "name": "",
          "type": "bool"
        }
      ],
      "stateMutability": "nonpayable",
      "type": "function"
    },
    {
      "inputs": [
        {
          "internalType": "address",
          "name": "from",
          "type": "address"
        },
        {
          "internalType": "address",
          "name": "to",
          "type": "address"
        },
        {
          "internalType": "uint256",
          "name": "amount",
          "type": "uint256"
        }
      ],
      "name": "transferFrom",
      "outputs": [
        {
          "internalType": "bool",
          "name": "",
          "type": "bool"
        }
      ],
      "stateMutability": "nonpayable",
      "type": "function"
    },
    {
      "inputs": [
        {
          "internalType": "address",
          "name": "newOwner",
          "type": "address"
        }
      ],
      "name": "transferOwnership",
      "outputs": [],
      "stateMutability": "nonpayable",
      "type": "function"
    }
  ],
  "bytecode": "0x61016060405234801562000011575f80fd5b506040518060400160405280600981526020017f54657374546f6b656e0000000000000000000000000000000000000000000000815250806040518060400160405280600181526020017f31000000000000000000000000000000000000000000000000000000000000008152506040518060400160405280600981526020017f54657374546f6b656e00000000000000000000000000000000000000000000008152506040518060400160405280600381526020017f4d544b00000000000000000000000000000000000000000000000000000000008152508160039081620000fc91906200063a565b5080600490816200010e91906200063a565b5050506200013162000125620001e860201b60201c565b620001ef60201b60201c565b62000147600683620002b260201b90919060201c565b610120818152505062000165600782620002b260201b90919060201c565b6101408181525050818051906020012060e08181525050808051906020012061010081815250504660a08181525050620001a46200030760201b60201c565b608081815250503073ffffffffffffffffffffffffffffffffffffffff1660c08173ffffffffffffffffffffffffffffffffffffffff168152505050505062000931565b5f33905090565b5f60055f9054906101000a900473ffffffffffffffffffffffffffffffffffffffff1690508160055f6101000a81548173ffffffffffffffffffffffffffffffffffffffff021916908373ffffffffffffffffffffffffffffffffffffffff1602179055508173ffffffffffffffffffffffffffffffffffffffff168173ffffffffffffffffffffffffffffffffffffffff167f8be0079c531659141344cd1fd0a4f28419497f9722a3daafe3b4186f6b6457e060405160405180910390a35050565b5f602083511015620002d757620002cf836200036360201b60201c565b905062000301565b82620002e983620003cd60201b60201c565b5f019081620002f991906200063a565b5060ff5f1b90505b92915050565b5f7f8b73c3c69bb8fe3d512ecc4cf759cc79239f7b179b0ffacaa9a75d522b39400f60e051610100514630604051602001620003489594939291906200078c565b60405160208183030381529060405280519060200120905090565b5f80829050601f81511115620003b257826040517f305a27a9000000000000000000000000000000000000000000000000000000008152600401620003a9919062000871565b60405180910390fd5b805181620003c090620008c2565b5f1c175f1b915050919050565b5f819050919050565b5f81519050919050565b7f4e487b71000000000000000000000000000000000000000000000000000000005f52604160045260245ffd5b7f4e487b71000000000000000000000000000000000000000000000000000000005f52602260045260245ffd5b5f60028204905060018216806200045257607f821691505b6020821081036200046857620004676200040d565b5b50919050565b5f819050815f5260205f209050919050565b5f6020601f8301049050919050565b5f82821b905092915050565b5f60088302620004cc7fffffffffffffffffffffffffffffffffffffffffffffffffffffffffffffffff826200048f565b620004d886836200048f565b95508019841693508086168417925050509392505050565b5f819050919050565b5f819050919050565b5f620005226200051c6200051684620004f0565b620004f9565b620004f0565b9050919050565b5f819050919050565b6200053d8362000502565b620005556200054c8262000529565b8484546200049b565b825550505050565b5f90565b6200056b6200055d565b6200057881848462000532565b505050565b5b818110156200059f57620005935f8262000561565b6001810190506200057e565b5050565b601f821115620005ee57620005b8816200046e565b620005c38462000480565b81016020851015620005d3578190505b620005eb620005e28562000480565b8301826200057d565b50505b505050565b5f82821c905092915050565b5f620006105f1984600802620005f3565b1980831691505092915050565b5f6200062a8383620005ff565b9150826002028217905092915050565b6200064582620003d6565b67ffffffffffffffff811115620006615762000660620003e0565b5b6200066d82546200043a565b6200067a828285620005a3565b5f60209050601f831160018114620006b0575f84156200069b578287015190505b620006a785826200061d565b86555062000716565b601f198416620006c0866200046e565b5f5b82811015620006e957848901518255600182019150602085019450602081019050620006c2565b8683101562000709578489015162000705601f891682620005ff565b8355505b6001600288020188555050505b505050505050565b5f819050919050565b62000732816200071e565b82525050565b6200074381620004f0565b82525050565b5f73ffffffffffffffffffffffffffffffffffffffff82169050919050565b5f620007748262000749565b9050919050565b620007868162000768565b82525050565b5f60a082019050620007a15f83018862000727565b620007b0602083018762000727565b620007bf604083018662000727565b620007ce606083018562000738565b620007dd60808301846200077b565b9695505050505050565b5f82825260208201905092915050565b5f5b8381101562000816578082015181840152602081019050620007f9565b5f8484015250505050565b5f601f19601f8301169050919050565b5f6200083d82620003d6565b620008498185620007e7565b93506200085b818560208601620007f7565b620008668162000821565b840191505092915050565b5f6020820190508181035f8301526200088b818462000831565b905092915050565b5f81519050919050565b5f819050602082019050919050565b5f620008b982516200071e565b80915050919050565b5f620008ce8262000893565b82620008da846200089d565b9050620008e781620008ac565b925060208210156200092a57620009257fffffffffffffffffffffffffffffffffffffffffffffffffffffffffffffffff836020036008026200048f565b831692505b5050919050565b60805160a05160c05160e05161010051610120516101405161449a620009835f395f610ac901525f610a9501525f611e0d01525f611dec01525f61175501525f6117ab01525f6117d4015261449a5ff3fe608060405234801561000f575f80fd5b50600436106101e3575f3560e01c8063715018a61161010d5780639ab24eb0116100a0578063d505accf1161006f578063d505accf146105d1578063dd62ed3e146105ed578063f1127ed81461061d578063f2fde38b1461064d576101e3565b80639ab24eb014610525578063a457c2d714610555578063a9059cbb14610585578063c3cda520146105b5576101e3565b80638da5cb5b116100dc5780638da5cb5b1461049b5780638e539e8c146104b957806391ddadf4146104e957806395d89b4114610507576101e3565b8063715018a61461042157806379cc67901461042b5780637ecebe001461044757806384b0196e14610477576101e3565b80633a46b1a811610185578063587cde1e11610154578063587cde1e146103755780635c19a95c146103a55780636fcfff45146103c157806370a08231146103f1576101e3565b80633a46b1a8146102ef57806340c10f191461031f57806342966c681461033b5780634bf5d7e914610357576101e3565b806323b872dd116101c157806323b872dd14610253578063313ce567146102835780633644e515146102a157806339509351146102bf576101e3565b806306fdde03146101e7578063095ea7b31461020557806318160ddd14610235575b5f80fd5b6101ef610669565b6040516101fc9190612dec565b60405180910390f35b61021f600480360381019061021a9190612e9d565b6106f9565b60405161022c9190612ef5565b60405180910390f35b61023d61071b565b60405161024a9190612f1d565b60405180910390f35b61026d60048036038101906102689190612f36565b610724565b60405161027a9190612ef5565b60405180910390f35b61028b610752565b6040516102989190612fa1565b60405180910390f35b6102a961075a565b6040516102b69190612fd2565b60405180910390f35b6102d960048036038101906102d49190612e9d565b610768565b6040516102e69190612ef5565b60405180910390f35b61030960048036038101906103049190612e9d565b61079e565b6040516103169190612f1d565b60405180910390f35b61033960048036038101906103349190612e9d565b61083e565b005b61035560048036038101906103509190612feb565b610854565b005b61035f610868565b60405161036c9190612dec565b60405180910390f35b61038f600480360381019061038a9190613016565b6108f6565b60405161039c9190613050565b60405180910390f35b6103bf60048036038101906103ba9190613016565b61095b565b005b6103db60048036038101906103d69190613016565b61096f565b6040516103e89190613087565b60405180910390f35b61040b60048036038101906104069190613016565b6109c0565b6040516104189190612f1d565b60405180910390f35b610429610a05565b005b61044560048036038101906104409190612e9d565b610a18565b005b610461600480360381019061045c9190613016565b610a38565b60405161046e9190612f1d565b60405180910390f35b61047f610a85565b6040516104929796959493929190613191565b60405180910390f35b6104a3610b82565b6040516104b09190613050565b60405180910390f35b6104d360048036038101906104ce9190612feb565b610baa565b6040516104e09190612f1d565b60405180910390f35b6104f1610c0e565b6040516104fe9190613233565b60405180910390f35b61050f610c1d565b60405161051c9190612dec565b60405180910390f35b61053f600480360381019061053a9190613016565b610cad565b60405161054c9190612f1d565b60405180910390f35b61056f600480360381019061056a9190612e9d565b610dab565b60405161057c9190612ef5565b60405180910390f35b61059f600480360381019061059a9190612e9d565b610e20565b6040516105ac9190612ef5565b60405180910390f35b6105cf60048036038101906105ca91906132a0565b610e42565b005b6105eb60048036038101906105e69190613329565b610f45565b005b610607600480360381019061060291906133c6565b611084565b6040516106149190612f1d565b60405180910390f35b6106376004803603810190610632919061342e565b611106565b60405161064491906134de565b60405180910390f35b61066760048036038101906106629190613016565b61120f565b005b60606003805461067890613524565b80601f01602080910402602001604051908101604052809291908181526020018280546106a490613524565b80156106ef5780601f106106c6576101008083540402835291602001916106ef565b820191905f5260205f20905b8154815290600101906020018083116106d257829003601f168201915b5050505050905090565b5f80610703611291565b9050610710818585611298565b600191505092915050565b5f600254905090565b5f8061072e611291565b905061073b85828561145b565b6107468585856114e6565b60019150509392505050565b5f6012905090565b5f610763611752565b905090565b5f80610772611291565b90506107938185856107848589611084565b61078e9190613581565b611298565b600191505092915050565b5f6107a7610c0e565b65ffffffffffff1682106107f0576040517f08c379a00000000000000000000000000000000000000000000000000000000081526004016107e7906135fe565b60405180910390fd5b610836600b5f8573ffffffffffffffffffffffffffffffffffffffff1673ffffffffffffffffffffffffffffffffffffffff1681526020019081526020015f2083611808565b905092915050565b610846611945565b61085082826119c3565b5050565b61086561085f611291565b826119d1565b50565b606043610873610c0e565b65ffffffffffff16146108bb576040517f08c379a00000000000000000000000000000000000000000000000000000000081526004016108b290613666565b60405180910390fd5b6040518060400160405280601d81526020017f6d6f64653d626c6f636b6e756d6265722666726f6d3d64656661756c74000000815250905090565b5f600a5f8373ffffffffffffffffffffffffffffffffffffffff1673ffffffffffffffffffffffffffffffffffffffff1681526020019081526020015f205f9054906101000a900473ffffffffffffffffffffffffffffffffffffffff169050919050565b61096c610966611291565b826119df565b50565b5f6109b9600b5f8473ffffffffffffffffffffffffffffffffffffffff1673ffffffffffffffffffffffffffffffffffffffff1681526020019081526020015f2080549050611af4565b9050919050565b5f805f8373ffffffffffffffffffffffffffffffffffffffff1673ffffffffffffffffffffffffffffffffffffffff1681526020019081526020015f20549050919050565b610a0d611945565b610a165f611b46565b565b610a2a82610a24611291565b8361145b565b610a3482826119d1565b5050565b5f610a7e60085f8473ffffffffffffffffffffffffffffffffffffffff1673ffffffffffffffffffffffffffffffffffffffff1681526020019081526020015f20611c09565b9050919050565b5f6060805f805f6060610ac260067f0000000000000000000000000000000000000000000000000000000000000000611c1590919063ffffffff16565b610af660077f0000000000000000000000000000000000000000000000000000000000000000611c1590919063ffffffff16565b46305f801b5f67ffffffffffffffff811115610b1557610b14613684565b5b604051908082528060200260200182016040528015610b435781602001602082028036833780820191505090505b507f0f00000000000000000000000000000000000000000000000000000000000000959493929190965096509650965096509650965090919293949596565b5f60055f9054906101000a900473ffffffffffffffffffffffffffffffffffffffff16905090565b5f610bb3610c0e565b65ffffffffffff168210610bfc576040517f08c379a0000000000000000000000000000000000000000000000000000000008152600401610bf3906135fe565b60405180910390fd5b610c07600c83611808565b9050919050565b5f610c1843611cc2565b905090565b606060048054610c2c90613524565b80601f0160208091040260200160405190810160405280929190818152602001828054610c5890613524565b8015610ca35780601f10610c7a57610100808354040283529160200191610ca3565b820191905f5260205f20905b815481529060010190602001808311610c8657829003601f168201915b5050505050905090565b5f80600b5f8473ffffffffffffffffffffffffffffffffffffffff1673ffffffffffffffffffffffffffffffffffffffff1681526020019081526020015f208054905090505f8114610d8357600b5f8473ffffffffffffffffffffffffffffffffffffffff1673ffffffffffffffffffffffffffffffffffffffff1681526020019081526020015f206001820381548110610d4b57610d4a6136b1565b5b905f5260205f20015f0160049054906101000a90047bffffffffffffffffffffffffffffffffffffffffffffffffffffffff16610d85565b5f5b7bffffffffffffffffffffffffffffffffffffffffffffffffffffffff16915050919050565b5f80610db5611291565b90505f610dc28286611084565b905083811015610e07576040517f08c379a0000000000000000000000000000000000000000000000000000000008152600401610dfe9061374e565b60405180910390fd5b610e148286868403611298565b60019250505092915050565b5f80610e2a611291565b9050610e378185856114e6565b600191505092915050565b83421115610e85576040517f08c379a0000000000000000000000000000000000000000000000000000000008152600401610e7c906137b6565b60405180910390fd5b5f610ee6610ede7fe48329057bfd03d55e49b547132e39cffd9c1820ad7b9d4c5307691425d15adf898989604051602001610ec394939291906137d4565b60405160208183030381529060405280519060200120611d16565b858585611d2f565b9050610ef181611d58565b8614610f32576040517f08c379a0000000000000000000000000000000000000000000000000000000008152600401610f2990613861565b60405180910390fd5b610f3c81886119df565b50505050505050565b83421115610f88576040517f08c379a0000000000000000000000000000000000000000000000000000000008152600401610f7f906138c9565b60405180910390fd5b5f7f6e71edae12b1b97f4d1f60370fef10105fa2faae0126114a169c64845d6126c9888888610fb68c611d58565b89604051602001610fcc969594939291906138e7565b6040516020818303038152906040528051906020012090505f610fee82611d16565b90505f610ffd82878787611d2f565b90508973ffffffffffffffffffffffffffffffffffffffff168173ffffffffffffffffffffffffffffffffffffffff161461106d576040517f08c379a000000000000000000000000000000000000000000000000000000000815260040161106490613990565b60405180910390fd5b6110788a8a8a611298565b50505050505050505050565b5f60015f8473ffffffffffffffffffffffffffffffffffffffff1673ffffffffffffffffffffffffffffffffffffffff1681526020019081526020015f205f8373ffffffffffffffffffffffffffffffffffffffff1673ffffffffffffffffffffffffffffffffffffffff1681526020019081526020015f2054905092915050565b61110e612d26565b600b5f8473ffffffffffffffffffffffffffffffffffffffff1673ffffffffffffffffffffffffffffffffffffffff1681526020019081526020015f208263ffffffff1681548110611163576111626136b1565b5b905f5260205f20016040518060400160405290815f82015f9054906101000a900463ffffffff1663ffffffff1663ffffffff1681526020015f820160049054906101000a90047bffffffffffffffffffffffffffffffffffffffffffffffffffffffff167bffffffffffffffffffffffffffffffffffffffffffffffffffffffff167bffffffffffffffffffffffffffffffffffffffffffffffffffffffff1681525050905092915050565b611217611945565b5f73ffffffffffffffffffffffffffffffffffffffff168173ffffffffffffffffffffffffffffffffffffffff1603611285576040517f08c379a000000000000000000000000000000000000000000000000000000000815260040161127c90613a1e565b60405180910390fd5b61128e81611b46565b50565b5f33905090565b5f73ffffffffffffffffffffffffffffffffffffffff168373ffffffffffffffffffffffffffffffffffffffff1603611306576040517f08c379a00000000000000000000000000000000000000000000000000000000081526004016112fd90613aac565b60405180910390fd5b5f73ffffffffffffffffffffffffffffffffffffffff168273ffffffffffffffffffffffffffffffffffffffff1603611374576040517f08c379a000000000000000000000000000000000000000000000000000000000815260040161136b90613b3a565b60405180910390fd5b8060015f8573ffffffffffffffffffffffffffffffffffffffff1673ffffffffffffffffffffffffffffffffffffffff1681526020019081526020015f205f8473ffffffffffffffffffffffffffffffffffffffff1673ffffffffffffffffffffffffffffffffffffffff1681526020019081526020015f20819055508173ffffffffffffffffffffffffffffffffffffffff168373ffffffffffffffffffffffffffffffffffffffff167f8c5be1e5ebec7d5bd14f71427d1e84f3dd0314c0f7b2291e5b200ac8c7c3b9258360405161144e9190612f1d565b60405180910390a3505050565b5f6114668484611084565b90507fffffffffffffffffffffffffffffffffffffffffffffffffffffffffffffffff81146114e057818110156114d2576040517f08c379a00000000000000000000000000000000000000000000000000000000081526004016114c990613ba2565b60405180910390fd5b6114df8484848403611298565b5b50505050565b5f73ffffffffffffffffffffffffffffffffffffffff168373ffffffffffffffffffffffffffffffffffffffff1603611554576040517f08c379a000000000000000000000000000000000000000000000000000000000815260040161154b90613c30565b60405180910390fd5b5f73ffffffffffffffffffffffffffffffffffffffff168273ffffffffffffffffffffffffffffffffffffffff16036115c2576040517f08c379a00000000000000000000000000000000000000000000000000000000081526004016115b990613cbe565b60405180910390fd5b6115cd838383611db3565b5f805f8573ffffffffffffffffffffffffffffffffffffffff1673ffffffffffffffffffffffffffffffffffffffff1681526020019081526020015f2054905081811015611650576040517f08c379a000000000000000000000000000000000000000000000000000000000815260040161164790613d4c565b60405180910390fd5b8181035f808673ffffffffffffffffffffffffffffffffffffffff1673ffffffffffffffffffffffffffffffffffffffff1681526020019081526020015f2081905550815f808573ffffffffffffffffffffffffffffffffffffffff1673ffffffffffffffffffffffffffffffffffffffff1681526020019081526020015f205f82825401925050819055508273ffffffffffffffffffffffffffffffffffffffff168473ffffffffffffffffffffffffffffffffffffffff167fddf252ad1be2c89b69c2b068fc378daa952ba7f163c4a11628f55a4df523b3ef846040516117399190612f1d565b60405180910390a361174c848484611db8565b50505050565b5f7f000000000000000000000000000000000000000000000000000000000000000073ffffffffffffffffffffffffffffffffffffffff163073ffffffffffffffffffffffffffffffffffffffff161480156117cd57507f000000000000000000000000000000000000000000000000000000000000000046145b156117fa577f00000000000000000000000000000000000000000000000000000000000000009050611805565b611802611dc8565b90505b90565b5f80838054905090505f808290506005831115611879575f61182984611e5d565b846118349190613d6a565b9050856118418883611f53565b5f015f9054906101000a900463ffffffff1663ffffffff16111561186757809150611877565b6001816118749190613581565b92505b505b5b808210156118d6575f61188d8383611f65565b90508561189a8883611f53565b5f015f9054906101000a900463ffffffff1663ffffffff1611156118c0578091506118d0565b6001816118cd9190613581565b92505b5061187a565b5f811461191a576118ea8660018303611f53565b5f0160049054906101000a90047bffffffffffffffffffffffffffffffffffffffffffffffffffffffff1661191c565b5f5b7bffffffffffffffffffffffffffffffffffffffffffffffffffffffff16935050505092915050565b61194d611291565b73ffffffffffffffffffffffffffffffffffffffff1661196b610b82565b73ffffffffffffffffffffffffffffffffffffffff16146119c1576040517f08c379a00000000000000000000000000000000000000000000000000000000081526004016119b890613de7565b60405180910390fd5b565b6119cd8282611f8a565b5050565b6119db8282612017565b5050565b5f6119e9836108f6565b90505f6119f5846109c0565b905082600a5f8673ffffffffffffffffffffffffffffffffffffffff1673ffffffffffffffffffffffffffffffffffffffff1681526020019081526020015f205f6101000a81548173ffffffffffffffffffffffffffffffffffffffff021916908373ffffffffffffffffffffffffffffffffffffffff1602179055508273ffffffffffffffffffffffffffffffffffffffff168273ffffffffffffffffffffffffffffffffffffffff168573ffffffffffffffffffffffffffffffffffffffff167f3134e8a2e6d97e929a7e54011ea5485d7d196dd5f0ba4d4ef95803e8e3fc257f60405160405180910390a4611aee828483612035565b50505050565b5f63ffffffff8016821115611b3e576040517f08c379a0000000000000000000000000000000000000000000000000000000008152600401611b3590613e75565b60405180910390fd5b819050919050565b5f60055f9054906101000a900473ffffffffffffffffffffffffffffffffffffffff1690508160055f6101000a81548173ffffffffffffffffffffffffffffffffffffffff021916908373ffffffffffffffffffffffffffffffffffffffff1602179055508173ffffffffffffffffffffffffffffffffffffffff168173ffffffffffffffffffffffffffffffffffffffff167f8be0079c531659141344cd1fd0a4f28419497f9722a3daafe3b4186f6b6457e060405160405180910390a35050565b5f815f01549050919050565b606060ff5f1b8314611c3157611c2a83612225565b9050611cbc565b818054611c3d90613524565b80601f0160208091040260200160405190810160405280929190818152602001828054611c6990613524565b8015611cb45780601f10611c8b57610100808354040283529160200191611cb4565b820191905f5260205f20905b815481529060010190602001808311611c9757829003601f168201915b505050505090505b92915050565b5f65ffffffffffff8016821115611d0e576040517f08c379a0000000000000000000000000000000000000000000000000000000008152600401611d0590613f03565b60405180910390fd5b819050919050565b5f611d28611d22611752565b83612297565b9050919050565b5f805f611d3e878787876122d7565b91509150611d4b816123af565b8192505050949350505050565b5f8060085f8473ffffffffffffffffffffffffffffffffffffffff1673ffffffffffffffffffffffffffffffffffffffff1681526020019081526020015f209050611da281611c09565b9150611dad81612514565b50919050565b505050565b611dc3838383612528565b505050565b5f7f8b73c3c69bb8fe3d512ecc4cf759cc79239f7b179b0ffacaa9a75d522b39400f7f00000000000000000000000000000000000000000000000000000000000000007f00000000000000000000000000000000000000000000000000000000000000004630604051602001611e42959493929190613f21565b60405160208183030381529060405280519060200120905090565b5f808203611e6d575f9050611f4e565b5f6001611e7984612553565b901c6001901b90506001818481611e9357611e92613f72565b5b048201901c90506001818481611eac57611eab613f72565b5b048201901c90506001818481611ec557611ec4613f72565b5b048201901c90506001818481611ede57611edd613f72565b5b048201901c90506001818481611ef757611ef6613f72565b5b048201901c90506001818481611f1057611f0f613f72565b5b048201901c90506001818481611f2957611f28613f72565b5b048201901c9050611f4a81828581611f4457611f43613f72565b5b0461262a565b9150505b919050565b5f825f528160205f2001905092915050565b5f6002828418611f759190613f9f565b828416611f829190613581565b905092915050565b611f948282612642565b611f9c612790565b7bffffffffffffffffffffffffffffffffffffffffffffffffffffffff16611fc261071b565b1115612003576040517f08c379a0000000000000000000000000000000000000000000000000000000008152600401611ffa9061403f565b60405180910390fd5b612011600c6127b3836127c8565b50505050565b6120218282612a91565b61202f600c612c54836127c8565b50505050565b8173ffffffffffffffffffffffffffffffffffffffff168373ffffffffffffffffffffffffffffffffffffffff161415801561207057505f81115b15612220575f73ffffffffffffffffffffffffffffffffffffffff168373ffffffffffffffffffffffffffffffffffffffff161461214a575f806120f3600b5f8773ffffffffffffffffffffffffffffffffffffffff1673ffffffffffffffffffffffffffffffffffffffff1681526020019081526020015f20612c54856127c8565b915091508473ffffffffffffffffffffffffffffffffffffffff167fdec2bacdd2f05b59de34da9b523dff8be42e5e38e818c82fdb0bae774387a724838360405161213f92919061405d565b60405180910390a250505b5f73ffffffffffffffffffffffffffffffffffffffff168273ffffffffffffffffffffffffffffffffffffffff161461221f575f806121c8600b5f8673ffffffffffffffffffffffffffffffffffffffff1673ffffffffffffffffffffffffffffffffffffffff1681526020019081526020015f206127b3856127c8565b915091508373ffffffffffffffffffffffffffffffffffffffff167fdec2bacdd2f05b59de34da9b523dff8be42e5e38e818c82fdb0bae774387a724838360405161221492919061405d565b60405180910390a250505b5b505050565b60605f61223183612c69565b90505f602067ffffffffffffffff81111561224f5761224e613684565b5b6040519080825280601f01601f1916602001820160405280156122815781602001600182028036833780820191505090505b5090508181528360208201528092505050919050565b5f6040517f190100000000000000000000000000000000000000000000000000000000000081528360028201528260228201526042812091505092915050565b5f807f7fffffffffffffffffffffffffffffff5d576e7357a4501ddfe92f46681b20a0835f1c111561230f575f6003915091506123a6565b5f6001878787876040515f81526020016040526040516123329493929190614084565b6020604051602081039080840390855afa158015612352573d5f803e3d5ffd5b5050506020604051035190505f73ffffffffffffffffffffffffffffffffffffffff168173ffffffffffffffffffffffffffffffffffffffff160361239e575f600192509250506123a6565b805f92509250505b94509492505050565b5f60048111156123c2576123c16140c7565b5b8160048111156123d5576123d46140c7565b5b031561251157600160048111156123ef576123ee6140c7565b5b816004811115612402576124016140c7565b5b03612442576040517f08c379a00000000000000000000000000000000000000000000000000000000081526004016124399061413e565b60405180910390fd5b60026004811115612456576124556140c7565b5b816004811115612469576124686140c7565b5b036124a9576040517f08c379a00000000000000000000000000000000000000000000000000000000081526004016124a0906141a6565b60405180910390fd5b600360048111156124bd576124bc6140c7565b5b8160048111156124d0576124cf6140c7565b5b03612510576040517f08c379a000000000000000000000000000000000000000000000000000000000815260040161250790614234565b60405180910390fd5b5b50565b6001815f015f828254019250508190555050565b612533838383612cb7565b61254e61253f846108f6565b612548846108f6565b83612035565b505050565b5f805f90505f608084901c111561257257608083901c92506080810190505b5f604084901c111561258c57604083901c92506040810190505b5f602084901c11156125a657602083901c92506020810190505b5f601084901c11156125c057601083901c92506010810190505b5f600884901c11156125da57600883901c92506008810190505b5f600484901c11156125f457600483901c92506004810190505b5f600284901c111561260e57600283901c92506002810190505b5f600184901c1115612621576001810190505b80915050919050565b5f818310612638578161263a565b825b905092915050565b5f73ffffffffffffffffffffffffffffffffffffffff168273ffffffffffffffffffffffffffffffffffffffff16036126b0576040517f08c379a00000000000000000000000000000000000000000000000000000000081526004016126a79061429c565b60405180910390fd5b6126bb5f8383611db3565b8060025f8282546126cc9190613581565b92505081905550805f808473ffffffffffffffffffffffffffffffffffffffff1673ffffffffffffffffffffffffffffffffffffffff1681526020019081526020015f205f82825401925050819055508173ffffffffffffffffffffffffffffffffffffffff165f73ffffffffffffffffffffffffffffffffffffffff167fddf252ad1be2c89b69c2b068fc378daa952ba7f163c4a11628f55a4df523b3ef836040516127799190612f1d565b60405180910390a361278c5f8383611db8565b5050565b5f7bffffffffffffffffffffffffffffffffffffffffffffffffffffffff905090565b5f81836127c09190613581565b905092915050565b5f805f858054905090505f808214612888576127e78760018403611f53565b6040518060400160405290815f82015f9054906101000a900463ffffffff1663ffffffff1663ffffffff1681526020015f820160049054906101000a90047bffffffffffffffffffffffffffffffffffffffffffffffffffffffff167bffffffffffffffffffffffffffffffffffffffffffffffffffffffff167bffffffffffffffffffffffffffffffffffffffffffffffffffffffff16815250506128c2565b60405180604001604052805f63ffffffff1681526020015f7bffffffffffffffffffffffffffffffffffffffffffffffffffffffff168152505b905080602001517bffffffffffffffffffffffffffffffffffffffffffffffffffffffff1693506128f784868863ffffffff16565b92505f8211801561291f575061290b610c0e565b65ffffffffffff16815f015163ffffffff16145b1561298f5761292d83612cbc565b61293a8860018503611f53565b5f0160046101000a8154817bffffffffffffffffffffffffffffffffffffffffffffffffffffffff02191690837bffffffffffffffffffffffffffffffffffffffffffffffffffffffff160217905550612a87565b8660405180604001604052806129b36129a6610c0e565b65ffffffffffff16611af4565b63ffffffff1681526020016129c786612cbc565b7bffffffffffffffffffffffffffffffffffffffffffffffffffffffff16815250908060018154018082558091505060019003905f5260205f20015f909190919091505f820151815f015f6101000a81548163ffffffff021916908363ffffffff1602179055506020820151815f0160046101000a8154817bffffffffffffffffffffffffffffffffffffffffffffffffffffffff02191690837bffffffffffffffffffffffffffffffffffffffffffffffffffffffff16021790555050505b5050935093915050565b5f73ffffffffffffffffffffffffffffffffffffffff168273ffffffffffffffffffffffffffffffffffffffff1603612aff576040517f08c379a0000000000000000000000000000000000000000000000000000000008152600401612af69061432a565b60405180910390fd5b612b0a825f83611db3565b5f805f8473ffffffffffffffffffffffffffffffffffffffff1673ffffffffffffffffffffffffffffffffffffffff1681526020019081526020015f2054905081811015612b8d576040517f08c379a0000000000000000000000000000000000000000000000000000000008152600401612b84906143b8565b60405180910390fd5b8181035f808573ffffffffffffffffffffffffffffffffffffffff1673ffffffffffffffffffffffffffffffffffffffff1681526020019081526020015f20819055508160025f82825403925050819055505f73ffffffffffffffffffffffffffffffffffffffff168373ffffffffffffffffffffffffffffffffffffffff167fddf252ad1be2c89b69c2b068fc378daa952ba7f163c4a11628f55a4df523b3ef84604051612c3c9190612f1d565b60405180910390a3612c4f835f84611db8565b505050565b5f8183612c619190613d6a565b905092915050565b5f8060ff835f1c169050601f811115612cae576040517fb3512b0c00000000000000000000000000000000000000000000000000000000815260040160405180910390fd5b80915050919050565b505050565b5f7bffffffffffffffffffffffffffffffffffffffffffffffffffffffff8016821115612d1e576040517f08c379a0000000000000000000000000000000000000000000000000000000008152600401612d1590614446565b60405180910390fd5b819050919050565b60405180604001604052805f63ffffffff1681526020015f7bffffffffffffffffffffffffffffffffffffffffffffffffffffffff1681525090565b5f81519050919050565b5f82825260208201905092915050565b5f5b83811015612d99578082015181840152602081019050612d7e565b5f8484015250505050565b5f601f19601f8301169050919050565b5f612dbe82612d62565b612dc88185612d6c565b9350612dd8818560208601612d7c565b612de181612da4565b840191505092915050565b5f6020820190508181035f830152612e048184612db4565b905092915050565b5f80fd5b5f73ffffffffffffffffffffffffffffffffffffffff82169050919050565b5f612e3982612e10565b9050919050565b612e4981612e2f565b8114612e53575f80fd5b50565b5f81359050612e6481612e40565b92915050565b5f819050919050565b612e7c81612e6a565b8114612e86575f80fd5b50565b5f81359050612e9781612e73565b92915050565b5f8060408385031215612eb357612eb2612e0c565b5b5f612ec085828601612e56565b9250506020612ed185828601612e89565b9150509250929050565b5f8115159050919050565b612eef81612edb565b82525050565b5f602082019050612f085f830184612ee6565b92915050565b612f1781612e6a565b82525050565b5f602082019050612f305f830184612f0e565b92915050565b5f805f60608486031215612f4d57612f4c612e0c565b5b5f612f5a86828701612e56565b9350506020612f6b86828701612e56565b9250506040612f7c86828701612e89565b9150509250925092565b5f60ff82169050919050565b612f9b81612f86565b82525050565b5f602082019050612fb45f830184612f92565b92915050565b5f819050919050565b612fcc81612fba565b82525050565b5f602082019050612fe55f830184612fc3565b92915050565b5f6020828403121561300057612fff612e0c565b5b5f61300d84828501612e89565b91505092915050565b5f6020828403121561302b5761302a612e0c565b5b5f61303884828501612e56565b91505092915050565b61304a81612e2f565b82525050565b5f6020820190506130635f830184613041565b92915050565b5f63ffffffff82169050919050565b61308181613069565b82525050565b5f60208201905061309a5f830184613078565b92915050565b5f7fff0000000000000000000000000000000000000000000000000000000000000082169050919050565b6130d4816130a0565b82525050565b5f81519050919050565b5f82825260208201905092915050565b5f819050602082019050919050565b61310c81612e6a565b82525050565b5f61311d8383613103565b60208301905092915050565b5f602082019050919050565b5f61313f826130da565b61314981856130e4565b9350613154836130f4565b805f5b8381101561318457815161316b8882613112565b975061317683613129565b925050600181019050613157565b5085935050505092915050565b5f60e0820190506131a45f83018a6130cb565b81810360208301526131b68189612db4565b905081810360408301526131ca8188612db4565b90506131d96060830187612f0e565b6131e66080830186613041565b6131f360a0830185612fc3565b81810360c08301526132058184613135565b905098975050505050505050565b5f65ffffffffffff82169050919050565b61322d81613213565b82525050565b5f6020820190506132465f830184613224565b92915050565b61325581612f86565b811461325f575f80fd5b50565b5f813590506132708161324c565b92915050565b61327f81612fba565b8114613289575f80fd5b50565b5f8135905061329a81613276565b92915050565b5f805f805f8060c087890312156132ba576132b9612e0c565b5b5f6132c789828a01612e56565b96505060206132d889828a01612e89565b95505060406132e989828a01612e89565b94505060606132fa89828a01613262565b935050608061330b89828a0161328c565b92505060a061331c89828a0161328c565b9150509295509295509295565b5f805f805f805f60e0888a03121561334457613343612e0c565b5b5f6133518a828b01612e56565b97505060206133628a828b01612e56565b96505060406133738a828b01612e89565b95505060606133848a828b01612e89565b94505060806133958a828b01613262565b93505060a06133a68a828b0161328c565b92505060c06133b78a828b0161328c565b91505092959891949750929550565b5f80604083850312156133dc576133db612e0c565b5b5f6133e985828601612e56565b92505060206133fa85828601612e56565b9150509250929050565b61340d81613069565b8114613417575f80fd5b50565b5f8135905061342881613404565b92915050565b5f806040838503121561344457613443612e0c565b5b5f61345185828601612e56565b92505060206134628582860161341a565b9150509250929050565b61347581613069565b82525050565b5f7bffffffffffffffffffffffffffffffffffffffffffffffffffffffff82169050919050565b6134ab8161347b565b82525050565b604082015f8201516134c55f85018261346c565b5060208201516134d860208501826134a2565b50505050565b5f6040820190506134f15f8301846134b1565b92915050565b7f4e487b71000000000000000000000000000000000000000000000000000000005f52602260045260245ffd5b5f600282049050600182168061353b57607f821691505b60208210810361354e5761354d6134f7565b5b50919050565b7f4e487b71000000000000000000000000000000000000000000000000000000005f52601160045260245ffd5b5f61358b82612e6a565b915061359683612e6a565b92508282019050808211156135ae576135ad613554565b5b92915050565b7f4552433230566f7465733a20667574757265206c6f6f6b7570000000000000005f82015250565b5f6135e8601983612d6c565b91506135f3826135b4565b602082019050919050565b5f6020820190508181035f830152613615816135dc565b9050919050565b7f4552433230566f7465733a2062726f6b656e20636c6f636b206d6f64650000005f82015250565b5f613650601d83612d6c565b915061365b8261361c565b602082019050919050565b5f6020820190508181035f83015261367d81613644565b9050919050565b7f4e487b71000000000000000000000000000000000000000000000000000000005f52604160045260245ffd5b7f4e487b71000000000000000000000000000000000000000000000000000000005f52603260045260245ffd5b7f45524332303a2064656372656173656420616c6c6f77616e63652062656c6f775f8201527f207a65726f000000000000000000000000000000000000000000000000000000602082015250565b5f613738602583612d6c565b9150613743826136de565b604082019050919050565b5f6020820190508181035f8301526137658161372c565b9050919050565b7f4552433230566f7465733a207369676e617475726520657870697265640000005f82015250565b5f6137a0601d83612d6c565b91506137ab8261376c565b602082019050919050565b5f6020820190508181035f8301526137cd81613794565b9050919050565b5f6080820190506137e75f830187612fc3565b6137f46020830186613041565b6138016040830185612f0e565b61380e6060830184612f0e565b95945050505050565b7f4552433230566f7465733a20696e76616c6964206e6f6e6365000000000000005f82015250565b5f61384b601983612d6c565b915061385682613817565b602082019050919050565b5f6020820190508181035f8301526138788161383f565b9050919050565b7f45524332305065726d69743a206578706972656420646561646c696e650000005f82015250565b5f6138b3601d83612d6c565b91506138be8261387f565b602082019050919050565b5f6020820190508181035f8301526138e0816138a7565b9050919050565b5f60c0820190506138fa5f830189612fc3565b6139076020830188613041565b6139146040830187613041565b6139216060830186612f0e565b61392e6080830185612f0e565b61393b60a0830184612f0e565b979650505050505050565b7f45524332305065726d69743a20696e76616c6964207369676e617475726500005f82015250565b5f61397a601e83612d6c565b915061398582613946565b602082019050919050565b5f6020820190508181035f8301526139a78161396e565b9050919050565b7f4f776e61626c653a206e6577206f776e657220697320746865207a65726f20615f8201527f6464726573730000000000000000000000000000000000000000000000000000602082015250565b5f613a08602683612d6c565b9150613a13826139ae565b604082019050919050565b5f6020820190508181035f830152613a35816139fc565b9050919050565b7f45524332303a20617070726f76652066726f6d20746865207a65726f206164645f8201527f7265737300000000000000000000000000000000000000000000000000000000602082015250565b5f613a96602483612d6c565b9150613aa182613a3c565b604082019050919050565b5f6020820190508181035f830152613ac381613a8a565b9050919050565b7f45524332303a20617070726f766520746f20746865207a65726f2061646472655f8201527f7373000000000000000000000000000000000000000000000000000000000000602082015250565b5f613b24602283612d6c565b9150613b2f82613aca565b604082019050919050565b5f6020820190508181035f830152613b5181613b18565b9050919050565b7f45524332303a20696e73756666696369656e7420616c6c6f77616e63650000005f82015250565b5f613b8c601d83612d6c565b9150613b9782613b58565b602082019050919050565b5f6020820190508181035f830152613bb981613b80565b9050919050565b7f45524332303a207472616e736665722066726f6d20746865207a65726f2061645f8201527f6472657373000000000000000000000000000000000000000000000000000000602082015250565b5f613c1a602583612d6c565b9150613c2582613bc0565b604082019050919050565b5f6020820190508181035f830152613c4781613c0e565b9050919050565b7f45524332303a207472616e7366657220746f20746865207a65726f20616464725f8201527f6573730000000000000000000000000000000000000000000000000000000000602082015250565b5f613ca8602383612d6c565b9150613cb382613c4e565b604082019050919050565b5f6020820190508181035f830152613cd581613c9c565b9050919050565b7f45524332303a207472616e7366657220616d6f756e74206578636565647320625f8201527f616c616e63650000000000000000000000000000000000000000000000000000602082015250565b5f613d36602683612d6c565b9150613d4182613cdc565b604082019050919050565b5f6020820190508181035f830152613d6381613d2a565b9050919050565b5f613d7482612e6a565b9150613d7f83612e6a565b9250828203905081811115613d9757613d96613554565b5b92915050565b7f4f776e61626c653a2063616c6c6572206973206e6f7420746865206f776e65725f82015250565b5f613dd1602083612d6c565b9150613ddc82613d9d565b602082019050919050565b5f6020820190508181035f830152613dfe81613dc5565b9050919050565b7f53616665436173743a2076616c756520646f65736e27742066697420696e20335f8201527f3220626974730000000000000000000000000000000000000000000000000000602082015250565b5f613e5f602683612d6c565b9150613e6a82613e05565b604082019050919050565b5f6020820190508181035f830152613e8c81613e53565b9050919050565b7f53616665436173743a2076616c756520646f65736e27742066697420696e20345f8201527f3820626974730000000000000000000000000000000000000000000000000000602082015250565b5f613eed602683612d6c565b9150613ef882613e93565b604082019050919050565b5f6020820190508181035f830152613f1a81613ee1565b9050919050565b5f60a082019050613f345f830188612fc3565b613f416020830187612fc3565b613f4e6040830186612fc3565b613f5b6060830185612f0e565b613f686080830184613041565b9695505050505050565b7f4e487b71000000000000000000000000000000000000000000000000000000005f52601260045260245ffd5b5f613fa982612e6a565b9150613fb483612e6a565b925082613fc457613fc3613f72565b5b828204905092915050565b7f4552433230566f7465733a20746f74616c20737570706c79207269736b73206f5f8201527f766572666c6f77696e6720766f74657300000000000000000000000000000000602082015250565b5f614029603083612d6c565b915061403482613fcf565b604082019050919050565b5f6020820190508181035f8301526140568161401d565b9050919050565b5f6040820190506140705f830185612f0e565b61407d6020830184612f0e565b9392505050565b5f6080820190506140975f830187612fc3565b6140a46020830186612f92565b6140b16040830185612fc3565b6140be6060830184612fc3565b95945050505050565b7f4e487b71000000000000000000000000000000000000000000000000000000005f52602160045260245ffd5b7f45434453413a20696e76616c6964207369676e617475726500000000000000005f82015250565b5f614128601883612d6c565b9150614133826140f4565b602082019050919050565b5f6020820190508181035f8301526141558161411c565b9050919050565b7f45434453413a20696e76616c6964207369676e6174757265206c656e677468005f82015250565b5f614190601f83612d6c565b915061419b8261415c565b602082019050919050565b5f6020820190508181035f8301526141bd81614184565b9050919050565b7f45434453413a20696e76616c6964207369676e6174757265202773272076616c5f8201527f7565000000000000000000000000000000000000000000000000000000000000602082015250565b5f61421e602283612d6c565b9150614229826141c4565b604082019050919050565b5f6020820190508181035f83015261424b81614212565b9050919050565b7f45524332303a206d696e7420746f20746865207a65726f2061646472657373005f82015250565b5f614286601f83612d6c565b915061429182614252565b602082019050919050565b5f6020820190508181035f8301526142b38161427a565b9050919050565b7f45524332303a206275726e2066726f6d20746865207a65726f206164647265735f8201527f7300000000000000000000000000000000000000000000000000000000000000602082015250565b5f614314602183612d6c565b915061431f826142ba565b604082019050919050565b5f6020820190508181035f83015261434181614308565b9050919050565b7f45524332303a206275726e20616d6f756e7420657863656564732062616c616e5f8201527f6365000000000000000000000000000000000000000000000000000000000000602082015250565b5f6143a2602283612d6c565b91506143ad82614348565b604082019050919050565b5f6020820190508181035f8301526143cf81614396565b9050919050565b7f53616665436173743a2076616c756520646f65736e27742066697420696e20325f8201527f3234206269747300000000000000000000000000000000000000000000000000602082015250565b5f614430602783612d6c565b915061443b826143d6565b604082019050919050565b5f6020820190508181035f83015261445d81614424565b905091905056fea26469706673582212201670790dece2a8f6b1df3db18c47cd22464d17ea93f9d373a22cfa6e740f829864736f6c63430008140033",
  "linkReferences": {},
  "deployedLinkReferences": {}
}